{
  "contractName": "LotteryV2",
  "abi": [
    {
      "inputs": [
        {
          "internalType": "uint64",
          "name": "subscriptionId",
          "type": "uint64"
        }
      ],
      "stateMutability": "nonpayable",
      "type": "constructor"
    },
    {
      "inputs": [
        {
          "internalType": "address",
          "name": "have",
          "type": "address"
        },
        {
          "internalType": "address",
          "name": "want",
          "type": "address"
        }
      ],
      "name": "OnlyCoordinatorCanFulfill",
      "type": "error"
    },
    {
      "inputs": [
        {
          "internalType": "uint256",
          "name": "",
          "type": "uint256"
        }
      ],
      "name": "lotteryHistory",
      "outputs": [
        {
          "internalType": "address",
          "name": "",
          "type": "address"
        }
      ],
      "stateMutability": "view",
      "type": "function"
    },
    {
      "inputs": [],
      "name": "lotteryId",
      "outputs": [
        {
          "internalType": "uint256",
          "name": "",
          "type": "uint256"
        }
      ],
      "stateMutability": "view",
      "type": "function"
    },
    {
      "inputs": [],
      "name": "owner",
      "outputs": [
        {
          "internalType": "address",
          "name": "",
          "type": "address"
        }
      ],
      "stateMutability": "view",
      "type": "function"
    },
    {
      "inputs": [
        {
          "internalType": "uint256",
          "name": "",
          "type": "uint256"
        }
      ],
      "name": "players",
      "outputs": [
        {
          "internalType": "address",
          "name": "",
          "type": "address"
        }
      ],
      "stateMutability": "view",
      "type": "function"
    },
    {
      "inputs": [
        {
          "internalType": "uint256",
          "name": "requestId",
          "type": "uint256"
        },
        {
          "internalType": "uint256[]",
          "name": "randomWords",
          "type": "uint256[]"
        }
      ],
      "name": "rawFulfillRandomWords",
      "outputs": [],
      "stateMutability": "nonpayable",
      "type": "function"
    },
    {
      "inputs": [
        {
          "internalType": "uint256",
          "name": "",
          "type": "uint256"
        }
      ],
      "name": "s_randomWords",
      "outputs": [
        {
          "internalType": "uint256",
          "name": "",
          "type": "uint256"
        }
      ],
      "stateMutability": "view",
      "type": "function"
    },
    {
      "inputs": [],
      "name": "s_requestId",
      "outputs": [
        {
          "internalType": "uint256",
          "name": "",
          "type": "uint256"
        }
      ],
      "stateMutability": "view",
      "type": "function"
    },
    {
      "inputs": [],
      "name": "s_subscriptionId",
      "outputs": [
        {
          "internalType": "uint64",
          "name": "",
          "type": "uint64"
        }
      ],
      "stateMutability": "view",
      "type": "function"
    },
    {
      "inputs": [],
      "name": "getBalance",
      "outputs": [
        {
          "internalType": "uint256",
          "name": "",
          "type": "uint256"
        }
      ],
      "stateMutability": "view",
      "type": "function"
    },
    {
      "inputs": [],
      "name": "getPlayers",
      "outputs": [
        {
          "internalType": "address[]",
          "name": "",
          "type": "address[]"
        }
      ],
      "stateMutability": "view",
      "type": "function"
    },
    {
      "inputs": [],
      "name": "enter",
      "outputs": [],
      "stateMutability": "payable",
      "type": "function"
    },
    {
      "inputs": [],
      "name": "pickWinner",
      "outputs": [],
      "stateMutability": "nonpayable",
      "type": "function"
    },
    {
      "inputs": [
        {
          "internalType": "uint256",
          "name": "amount",
          "type": "uint256"
        }
      ],
      "name": "topUpSubscription",
      "outputs": [],
      "stateMutability": "nonpayable",
      "type": "function"
    },
    {
      "inputs": [
        {
          "internalType": "address",
          "name": "consumerAddress",
          "type": "address"
        }
      ],
      "name": "addConsumer",
      "outputs": [],
      "stateMutability": "nonpayable",
      "type": "function"
    },
    {
      "inputs": [
        {
          "internalType": "address",
          "name": "consumerAddress",
          "type": "address"
        }
      ],
      "name": "removeConsumer",
      "outputs": [],
      "stateMutability": "nonpayable",
      "type": "function"
    },
    {
      "inputs": [
        {
          "internalType": "address",
          "name": "receivingWallet",
          "type": "address"
        }
      ],
      "name": "cancelSubscription",
      "outputs": [],
      "stateMutability": "nonpayable",
      "type": "function"
    },
    {
      "inputs": [
        {
          "internalType": "uint256",
          "name": "amount",
          "type": "uint256"
        },
        {
          "internalType": "address",
          "name": "to",
          "type": "address"
        }
      ],
      "name": "withdraw",
      "outputs": [],
      "stateMutability": "nonpayable",
      "type": "function"
    }
  ],
  "bytecode": "0x60a0604052738103b0a8a00be2ddc778e6e7eaa21791cd364625600660006101000a81548173ffffffffffffffffffffffffffffffffffffffff021916908373ffffffffffffffffffffffffffffffffffffffff16021790555073779877a7b0d9e8603169ddbd7836e478b4624789600760006101000a81548173ffffffffffffffffffffffffffffffffffffffff021916908373ffffffffffffffffffffffffffffffffffffffff1602179055507f474e34a077df58807dbe9c96d3c009b23b3c6d0cce433e59bbf5b34f823bc56c60001b600855620f4240600960006101000a81548163ffffffff021916908363ffffffff1602179055506003600960046101000a81548161ffff021916908361ffff1602179055506001600960066101000a81548163ffffffff021916908363ffffffff1602179055503480156200014657600080fd5b5060405162001fab38038062001fab83398181016040528101906200016c919062000344565b600660009054906101000a900473ffffffffffffffffffffffffffffffffffffffff168073ffffffffffffffffffffffffffffffffffffffff1660808173ffffffffffffffffffffffffffffffffffffffff168152505050336000806101000a81548173ffffffffffffffffffffffffffffffffffffffff021916908373ffffffffffffffffffffffffffffffffffffffff160217905550600660009054906101000a900473ffffffffffffffffffffffffffffffffffffffff16600460006101000a81548173ffffffffffffffffffffffffffffffffffffffff021916908373ffffffffffffffffffffffffffffffffffffffff160217905550600760009054906101000a900473ffffffffffffffffffffffffffffffffffffffff16600560006101000a81548173ffffffffffffffffffffffffffffffffffffffff021916908373ffffffffffffffffffffffffffffffffffffffff16021790555080600c60006101000a81548167ffffffffffffffff021916908367ffffffffffffffff1602179055505062000376565b600080fd5b600067ffffffffffffffff82169050919050565b6200031e81620002ff565b81146200032a57600080fd5b50565b6000815190506200033e8162000313565b92915050565b6000602082840312156200035d576200035c620002fa565b5b60006200036d848285016200032d565b91505092915050565b608051611c12620003996000396000818161077b01526107cf0152611c126000f3fe6080604052600436106100fd5760003560e01c80638ac0002111610095578063e580f47b11610064578063e580f47b146102f8578063e89e106a14610323578063e97dcb621461034e578063f6eaffc814610358578063f71d96cb14610395576100fd565b80638ac000211461024e5780638b5b9ccc146102795780638da5cb5b146102a457806393d81d58146102cf576100fd565b80631fe543e3116100d15780631fe543e3146101a85780635d495aea146101d15780636d6fe230146101e857806386850e9314610225576100fd565b8062f714ce146101025780630e27e3df1461012b578063112940f91461015457806312065fe01461017d575b600080fd5b34801561010e57600080fd5b50610129600480360381019061012491906112c4565b6103d2565b005b34801561013757600080fd5b50610152600480360381019061014d9190611304565b610505565b005b34801561016057600080fd5b5061017b60048036038101906101769190611304565b61063b565b005b34801561018957600080fd5b50610192610771565b60405161019f9190611340565b60405180910390f35b3480156101b457600080fd5b506101cf60048036038101906101ca91906114b4565b610779565b005b3480156101dd57600080fd5b506101e6610839565b005b3480156101f457600080fd5b5061020f600480360381019061020a9190611510565b6108d1565b60405161021c919061154c565b60405180910390f35b34801561023157600080fd5b5061024c60048036038101906102479190611510565b610904565b005b34801561025a57600080fd5b50610263610a8f565b604051610270919061158a565b60405180910390f35b34801561028557600080fd5b5061028e610aa9565b60405161029b9190611663565b60405180910390f35b3480156102b057600080fd5b506102b9610b37565b6040516102c6919061154c565b60405180910390f35b3480156102db57600080fd5b506102f660048036038101906102f19190611304565b610b5b565b005b34801561030457600080fd5b5061030d610cbb565b60405161031a9190611340565b60405180910390f35b34801561032f57600080fd5b50610338610cc1565b6040516103459190611340565b60405180910390f35b610356610cc7565b005b34801561036457600080fd5b5061037f600480360381019061037a9190611510565b610d76565b60405161038c9190611340565b60405180910390f35b3480156103a157600080fd5b506103bc60048036038101906103b79190611510565b610d9a565b6040516103c9919061154c565b60405180910390f35b60008054906101000a900473ffffffffffffffffffffffffffffffffffffffff1673ffffffffffffffffffffffffffffffffffffffff163373ffffffffffffffffffffffffffffffffffffffff1614610460576040517f08c379a0000000000000000000000000000000000000000000000000000000008152600401610457906116e2565b60405180910390fd5b600560009054906101000a900473ffffffffffffffffffffffffffffffffffffffff1673ffffffffffffffffffffffffffffffffffffffff1663a9059cbb82846040518363ffffffff1660e01b81526004016104bd929190611702565b6020604051808303816000875af11580156104dc573d6000803e3d6000fd5b505050506040513d601f19601f820116820180604052508101906105009190611763565b505050565b60008054906101000a900473ffffffffffffffffffffffffffffffffffffffff1673ffffffffffffffffffffffffffffffffffffffff163373ffffffffffffffffffffffffffffffffffffffff1614610593576040517f08c379a000000000000000000000000000000000000000000000000000000000815260040161058a906116e2565b60405180910390fd5b600460009054906101000a900473ffffffffffffffffffffffffffffffffffffffff1673ffffffffffffffffffffffffffffffffffffffff16639f87fad7600c60009054906101000a900467ffffffffffffffff16836040518363ffffffff1660e01b8152600401610606929190611790565b600060405180830381600087803b15801561062057600080fd5b505af1158015610634573d6000803e3d6000fd5b5050505050565b60008054906101000a900473ffffffffffffffffffffffffffffffffffffffff1673ffffffffffffffffffffffffffffffffffffffff163373ffffffffffffffffffffffffffffffffffffffff16146106c9576040517f08c379a00000000000000000000000000000000000000000000000000000000081526004016106c0906116e2565b60405180910390fd5b600460009054906101000a900473ffffffffffffffffffffffffffffffffffffffff1673ffffffffffffffffffffffffffffffffffffffff16637341c10c600c60009054906101000a900467ffffffffffffffff16836040518363ffffffff1660e01b815260040161073c929190611790565b600060405180830381600087803b15801561075657600080fd5b505af115801561076a573d6000803e3d6000fd5b5050505050565b600047905090565b7f000000000000000000000000000000000000000000000000000000000000000073ffffffffffffffffffffffffffffffffffffffff163373ffffffffffffffffffffffffffffffffffffffff161461082b57337f00000000000000000000000000000000000000000000000000000000000000006040517f1cf993f40000000000000000000000000000000000000000000000000000000081526004016108229291906117b9565b60405180910390fd5b6108358282610dd9565b5050565b60008054906101000a900473ffffffffffffffffffffffffffffffffffffffff1673ffffffffffffffffffffffffffffffffffffffff163373ffffffffffffffffffffffffffffffffffffffff16146108c7576040517f08c379a00000000000000000000000000000000000000000000000000000000081526004016108be906116e2565b60405180910390fd5b6108cf610dfc565b565b60036020528060005260406000206000915054906101000a900473ffffffffffffffffffffffffffffffffffffffff1681565b60008054906101000a900473ffffffffffffffffffffffffffffffffffffffff1673ffffffffffffffffffffffffffffffffffffffff163373ffffffffffffffffffffffffffffffffffffffff1614610992576040517f08c379a0000000000000000000000000000000000000000000000000000000008152600401610989906116e2565b60405180910390fd5b600560009054906101000a900473ffffffffffffffffffffffffffffffffffffffff1673ffffffffffffffffffffffffffffffffffffffff16634000aea0600460009054906101000a900473ffffffffffffffffffffffffffffffffffffffff1683600c60009054906101000a900467ffffffffffffffff16604051602001610a1b919061158a565b6040516020818303038152906040526040518463ffffffff1660e01b8152600401610a489392919061186a565b6020604051808303816000875af1158015610a67573d6000803e3d6000fd5b505050506040513d601f19601f82011682018060405250810190610a8b9190611763565b5050565b600c60009054906101000a900467ffffffffffffffff1681565b60606001805480602002602001604051908101604052809291908181526020018280548015610b2d57602002820191906000526020600020905b8160009054906101000a900473ffffffffffffffffffffffffffffffffffffffff1673ffffffffffffffffffffffffffffffffffffffff1681526020019060010190808311610ae3575b5050505050905090565b60008054906101000a900473ffffffffffffffffffffffffffffffffffffffff1681565b60008054906101000a900473ffffffffffffffffffffffffffffffffffffffff1673ffffffffffffffffffffffffffffffffffffffff163373ffffffffffffffffffffffffffffffffffffffff1614610be9576040517f08c379a0000000000000000000000000000000000000000000000000000000008152600401610be0906116e2565b60405180910390fd5b600460009054906101000a900473ffffffffffffffffffffffffffffffffffffffff1673ffffffffffffffffffffffffffffffffffffffff1663d7ae1d30600c60009054906101000a900467ffffffffffffffff16836040518363ffffffff1660e01b8152600401610c5c929190611790565b600060405180830381600087803b158015610c7657600080fd5b505af1158015610c8a573d6000803e3d6000fd5b505050506000600c60006101000a81548167ffffffffffffffff021916908367ffffffffffffffff16021790555050565b60025481565b600b5481565b662386f26fc10000341015610d11576040517f08c379a0000000000000000000000000000000000000000000000000000000008152600401610d089061191a565b60405180910390fd5b6001339080600181540180825580915050600190039060005260206000200160009091909190916101000a81548173ffffffffffffffffffffffffffffffffffffffff021916908373ffffffffffffffffffffffffffffffffffffffff160217905550565b600a8181548110610d8657600080fd5b906000526020600020016000915090505481565b60018181548110610daa57600080fd5b906000526020600020016000915054906101000a900473ffffffffffffffffffffffffffffffffffffffff1681565b80600a9080519060200190610def929190611128565b50610df8610ef6565b5050565b600460009054906101000a900473ffffffffffffffffffffffffffffffffffffffff1673ffffffffffffffffffffffffffffffffffffffff16635d3b1d30600854600c60009054906101000a900467ffffffffffffffff16600960049054906101000a900461ffff16600960009054906101000a900463ffffffff16600960069054906101000a900463ffffffff166040518663ffffffff1660e01b8152600401610eab95949392919061198f565b6020604051808303816000875af1158015610eca573d6000803e3d6000fd5b505050506040513d601f19601f82011682018060405250810190610eee91906119f7565b600b81905550565b6000600180549050600a600081548110610f1357610f12611a24565b5b9060005260206000200154610f289190611a82565b905060018181548110610f3e57610f3d611a24565b5b9060005260206000200160009054906101000a900473ffffffffffffffffffffffffffffffffffffffff1660036000600254815260200190815260200160002060006101000a81548173ffffffffffffffffffffffffffffffffffffffff021916908373ffffffffffffffffffffffffffffffffffffffff16021790555060026000815480929190610fcf90611ae2565b9190505550600060018281548110610fea57610fe9611a24565b5b9060005260206000200160009054906101000a900473ffffffffffffffffffffffffffffffffffffffff169050600067ffffffffffffffff81111561103257611031611371565b5b6040519080825280602002602001820160405280156110605781602001602082028036833780820191505090505b5060019080519060200190611076929190611175565b5060008173ffffffffffffffffffffffffffffffffffffffff164760405161109d90611b5b565b60006040518083038185875af1925050503d80600081146110da576040519150601f19603f3d011682016040523d82523d6000602084013e6110df565b606091505b5050905080611123576040517f08c379a000000000000000000000000000000000000000000000000000000000815260040161111a90611bbc565b60405180910390fd5b505050565b828054828255906000526020600020908101928215611164579160200282015b82811115611163578251825591602001919060010190611148565b5b50905061117191906111ff565b5090565b8280548282559060005260206000209081019282156111ee579160200282015b828111156111ed5782518260006101000a81548173ffffffffffffffffffffffffffffffffffffffff021916908373ffffffffffffffffffffffffffffffffffffffff16021790555091602001919060010190611195565b5b5090506111fb91906111ff565b5090565b5b80821115611218576000816000905550600101611200565b5090565b6000604051905090565b600080fd5b600080fd5b6000819050919050565b61124381611230565b811461124e57600080fd5b50565b6000813590506112608161123a565b92915050565b600073ffffffffffffffffffffffffffffffffffffffff82169050919050565b600061129182611266565b9050919050565b6112a181611286565b81146112ac57600080fd5b50565b6000813590506112be81611298565b92915050565b600080604083850312156112db576112da611226565b5b60006112e985828601611251565b92505060206112fa858286016112af565b9150509250929050565b60006020828403121561131a57611319611226565b5b6000611328848285016112af565b91505092915050565b61133a81611230565b82525050565b60006020820190506113556000830184611331565b92915050565b600080fd5b6000601f19601f8301169050919050565b7f4e487b7100000000000000000000000000000000000000000000000000000000600052604160045260246000fd5b6113a982611360565b810181811067ffffffffffffffff821117156113c8576113c7611371565b5b80604052505050565b60006113db61121c565b90506113e782826113a0565b919050565b600067ffffffffffffffff82111561140757611406611371565b5b602082029050602081019050919050565b600080fd5b600061143061142b846113ec565b6113d1565b9050808382526020820190506020840283018581111561145357611452611418565b5b835b8181101561147c57806114688882611251565b845260208401935050602081019050611455565b5050509392505050565b600082601f83011261149b5761149a61135b565b5b81356114ab84826020860161141d565b91505092915050565b600080604083850312156114cb576114ca611226565b5b60006114d985828601611251565b925050602083013567ffffffffffffffff8111156114fa576114f961122b565b5b61150685828601611486565b9150509250929050565b60006020828403121561152657611525611226565b5b600061153484828501611251565b91505092915050565b61154681611286565b82525050565b6000602082019050611561600083018461153d565b92915050565b600067ffffffffffffffff82169050919050565b61158481611567565b82525050565b600060208201905061159f600083018461157b565b92915050565b600081519050919050565b600082825260208201905092915050565b6000819050602082019050919050565b6115da81611286565b82525050565b60006115ec83836115d1565b60208301905092915050565b6000602082019050919050565b6000611610826115a5565b61161a81856115b0565b9350611625836115c1565b8060005b8381101561165657815161163d88826115e0565b9750611648836115f8565b925050600181019050611629565b5085935050505092915050565b6000602082019050818103600083015261167d8184611605565b905092915050565b600082825260208201905092915050565b7f596f75277265206e6f74206f776e657200000000000000000000000000000000600082015250565b60006116cc601083611685565b91506116d782611696565b602082019050919050565b600060208201905081810360008301526116fb816116bf565b9050919050565b6000604082019050611717600083018561153d565b6117246020830184611331565b9392505050565b60008115159050919050565b6117408161172b565b811461174b57600080fd5b50565b60008151905061175d81611737565b92915050565b60006020828403121561177957611778611226565b5b60006117878482850161174e565b91505092915050565b60006040820190506117a5600083018561157b565b6117b2602083018461153d565b9392505050565b60006040820190506117ce600083018561153d565b6117db602083018461153d565b9392505050565b600081519050919050565b600082825260208201905092915050565b60005b8381101561181c578082015181840152602081019050611801565b8381111561182b576000848401525b50505050565b600061183c826117e2565b61184681856117ed565b93506118568185602086016117fe565b61185f81611360565b840191505092915050565b600060608201905061187f600083018661153d565b61188c6020830185611331565b818103604083015261189e8184611831565b9050949350505050565b7f6d73672e76616c75652073686f756c642062652067726561746572207468616e60008201527f206f7220657175616c20746f20302e3031206574686572000000000000000000602082015250565b6000611904603783611685565b915061190f826118a8565b604082019050919050565b60006020820190508181036000830152611933816118f7565b9050919050565b6000819050919050565b61194d8161193a565b82525050565b600061ffff82169050919050565b61196a81611953565b82525050565b600063ffffffff82169050919050565b61198981611970565b82525050565b600060a0820190506119a46000830188611944565b6119b1602083018761157b565b6119be6040830186611961565b6119cb6060830185611980565b6119d86080830184611980565b9695505050505050565b6000815190506119f18161123a565b92915050565b600060208284031215611a0d57611a0c611226565b5b6000611a1b848285016119e2565b91505092915050565b7f4e487b7100000000000000000000000000000000000000000000000000000000600052603260045260246000fd5b7f4e487b7100000000000000000000000000000000000000000000000000000000600052601260045260246000fd5b6000611a8d82611230565b9150611a9883611230565b925082611aa857611aa7611a53565b5b828206905092915050565b7f4e487b7100000000000000000000000000000000000000000000000000000000600052601160045260246000fd5b6000611aed82611230565b91507fffffffffffffffffffffffffffffffffffffffffffffffffffffffffffffffff8203611b1f57611b1e611ab3565b5b600182019050919050565b600081905092915050565b50565b6000611b45600083611b2a565b9150611b5082611b35565b600082019050919050565b6000611b6682611b38565b9150819050919050565b7f4661696c20746f2073656e642065746865720000000000000000000000000000600082015250565b6000611ba6601283611685565b9150611bb182611b70565b602082019050919050565b60006020820190508181036000830152611bd581611b99565b905091905056fea2646970667358221220c34de9184938a671244e7053cf6f5904a4166b53000fe86ffb586a71b2ec2f6764736f6c634300080f0033",
  "immutableReferences": {
    "10": [
      {
        "length": 32,
        "start": 1915
      },
      {
        "length": 32,
        "start": 1999
      }
    ]
  },
  "source": "// SPDX-License-Identifier: MIT\npragma solidity ^0.8.15;\n\nimport \"@chainlink/contracts/src/v0.8/interfaces/LinkTokenInterface.sol\";\nimport \"@chainlink/contracts/src/v0.8/interfaces/VRFCoordinatorV2Interface.sol\";\nimport \"@chainlink/contracts/src/v0.8/VRFConsumerBaseV2.sol\";\n\n//https://docs.chain.link/vrf/v2/subscription/examples/programmatic-subscription\n\ncontract LotteryV2 is VRFConsumerBaseV2 {\n    address public owner;\n    address[] public players;\n    uint256 public lotteryId;\n    mapping(uint256 => address) public lotteryHistory;\n    \n    VRFCoordinatorV2Interface COORDINATOR;\n    LinkTokenInterface LINKTOKEN;\n\n    // Sepolia coordinator. For other networks,\n    // see https://docs.chain.link/docs/vrf-contracts/#configurations\n    address vrfCoordinator = 0x8103B0A8A00be2DDC778e6e7eaa21791Cd364625;\n\n    // Sepolia LINK token contract. For other networks, see\n    // https://docs.chain.link/docs/vrf-contracts/#configurations\n    address link_token_contract = 0x779877A7B0D9E8603169DdbD7836e478b4624789;\n\n    // The gas lane to use, which specifies the maximum gas price to bump to.\n    // For a list of available gas lanes on each network,\n    // see https://docs.chain.link/docs/vrf-contracts/#configurations\n    bytes32 keyHash =\n        0x474e34a077df58807dbe9c96d3c009b23b3c6d0cce433e59bbf5b34f823bc56c;\n\n    uint32 callbackGasLimit = 1000000;\n\n    uint16 requestConfirmations = 3;\n\n    uint32 numWords = 1;\n\n    uint256[] public s_randomWords;\n    uint256 public s_requestId;\n    uint64 public s_subscriptionId;\n\n    constructor(uint64 subscriptionId) VRFConsumerBaseV2(vrfCoordinator) {\n        owner = msg.sender;\n        COORDINATOR = VRFCoordinatorV2Interface(vrfCoordinator);\n        LINKTOKEN = LinkTokenInterface(link_token_contract);\n        s_subscriptionId = subscriptionId;\n    }\n\n    function getBalance() public view returns (uint256) {\n        //  contract    return\n        return address(this).balance;\n    }\n\n    // storage players memory  return\n    function getPlayers() public view returns (address[] memory) {\n        return players;\n    }\n\n    function enter() public payable {\n        // msg.sender  ether  0.01  \n        require(\n            msg.value >= 0.01 ether,\n            \"msg.value should be greater than or equal to 0.01 ether\"\n        );\n        // contract  payable , players array \n        players.push(payable(msg.sender));\n    }\n\n    function _requestRandomWords() internal {\n        s_requestId = COORDINATOR.requestRandomWords(\n            keyHash,\n            s_subscriptionId,\n            requestConfirmations,\n            callbackGasLimit,\n            numWords\n        );\n    }\n\n    function fulfillRandomWords(\n        uint256,\n        uint256[] memory randomWords\n    ) internal override {\n        s_randomWords = randomWords;\n        _prizeWinner();\n    }\n\n    function pickWinner() public onlyOwner {\n        _requestRandomWords();\n    }\n\n    function _prizeWinner() internal {\n        uint256 index = s_randomWords[0] % players.length;\n\n        // address payable -> address  ,  \n        lotteryHistory[lotteryId] = players[index];\n        lotteryId++;\n\n        address payable winner = payable(players[index]);\n        // players  , (0) size 0 \n        players = new address payable[](0);\n\n        // reentrancy attack ( )\n        //          \n        //  contract interaction        \n\n        // players[index]  contract ether  \n        // call  send transfer     gas 2300  \n        // 2019 12 operation code gas  ,  call  \n        (bool success, ) = winner.call{value: address(this).balance}(\"\");\n        require(success, \"Fail to send ether\");\n    }\n\n\n    // Assumes this contract owns link.\n    // 1000000000000000000 = 1 LINK\n    function topUpSubscription(uint256 amount) external onlyOwner {\n        LINKTOKEN.transferAndCall(\n            address(COORDINATOR),\n            amount,\n            abi.encode(s_subscriptionId)\n        );\n    }\n\n    function addConsumer(address consumerAddress) external onlyOwner {\n        // Add a consumer contract to the subscription.\n        COORDINATOR.addConsumer(s_subscriptionId, consumerAddress);\n    }\n\n    function removeConsumer(address consumerAddress) external onlyOwner {\n        // Remove a consumer contract from the subscription.\n        COORDINATOR.removeConsumer(s_subscriptionId, consumerAddress);\n    }\n\n    function cancelSubscription(address receivingWallet) external onlyOwner {\n        // Cancel the subscription and send the remaining LINK to a wallet address.\n        COORDINATOR.cancelSubscription(s_subscriptionId, receivingWallet);\n        s_subscriptionId = 0;\n    }\n\n    // Transfer this contract's funds to an address.\n    // 1000000000000000000 = 1 LINK\n    function withdraw(uint256 amount, address to) external onlyOwner {\n        LINKTOKEN.transfer(to, amount);\n    }\n\n    modifier onlyOwner() {\n        require(msg.sender == owner, \"You're not owner\");\n        _;\n    }\n}\n",
  "sourcePath": "/Users/subin/projects/truffle/contracts/LotteryV2.sol",
  "compiler": {
    "name": "solc",
    "version": "0.8.15+commit.e14f2714.Emscripten.clang"
  },
  "schemaVersion": "3.4.13",
  "updatedAt": "2023-05-18T06:57:05.483Z",
  "devdoc": {
    "kind": "dev",
    "methods": {},
    "version": 1
  },
  "userdoc": {
    "kind": "user",
    "methods": {},
    "version": 1
  }
}